:020000040800F2
:10000000B007002075010008430F0008410F0008E9
:1000100000000000000000000000000000000000E0
:10002000000000000000000000000000AD0F00080C
:100030000000000000000000450F0008AF0F00089E
:100040008701000887010008870100088701000870
:1000500087010008C9060008E906000875070008BE
:100060008701000887010008870100088701000850
:1000700087010008870100088701000809100008AF
:100080008701000887010008870100088701000830
:100090008701000887010008870100088701000820
:1000A0008701000887010008870100088701000810
:1000B0008701000887010008870100088701000800
:1000C00000F002F800F046F80CA030C808382418F8
:1000D0002D18A246671EAB4654465D46AC4201D180
:1000E00000F038F87E460F3E0FCCB646012633426C
:1000F00000D0FB1AA246AB4633431847B8120000A3
:10010000D8120000103A02D378C878C1FAD8520742
:1001100001D330C830C101D504680C6070470000BD
:100120000023002400250026103A01D378C1FBD813
:10013000520700D330C100D50B60704710B5642959
:1001400002D100F0FFF810BD002010BD1FB51FBD8B
:1001500010B510BD00F085FA1146FFF7F7FF00F06B
:10016000E5FF00F09DFA03B4FFF7F2FF03BC00F0D7
:10017000A3FA00000748804707480047FEE7FEE76C
:10018000FEE7FEE7FEE7FEE704480549054A064BA1
:100190007047000007100008C1000008B0010020EF
:1001A000B0070020B0030020B0030020FEB50546D4
:1001B00010460C46184373D0AE468C460020AD1A4C
:1001C00001469C4167D36646002701243D46B61A86
:1001D0009D4102D313463A462124654676462F04B4
:1001E000360C3E432D0CB61A9D4104D3150C1B044E
:1001F0002B4312041034654676462F06360A3E43DA
:100200002D0AB61A9D4104D3150E1B022B43120270
:100210000834654676462F0736093E432D09B61A3F
:100220009D4104D3150F1B012B431201241D65466C
:100230007646AF07B6083E43AD08B61A9D4104D3D3
:10024000950F9B002B439200A41C65467646EF0752
:1002500076083E436D08B61A9D411AD392185B4149
:10026000641C16E00018764665464941B71A9D4160
:100270000191009009D36046B11A98418E46844698
:10028000009801990025401C6941DD0752082A4366
:100290005B08641EE6D57246634603B0F0BDFFE717
:1002A00000200146C046C0462A462346F5E7000026
:1002B0000FB41CB5074B06AA7B446946009005980D
:1002C00000F0A3F90020694600F0B2F91CBC08BC9C
:1002D00004B0184775030000F8B50E460446002028
:1002E00020622046E1688847002829D0252802D0CE
:1002F0006268A16820E0E168204600278847050081
:100300001ED028464138192802D80127FF0220357F
:100310003246204627602946FFF710FF002808D004
:10032000012804D0F61DF608F6000836D9E7361D78
:10033000D7E762682846A1689047206A401CCFE74B
:10034000206AF8BDF7B5002575291068009914A634
:1003500011D0C046C046002802DA404211A608E08B
:10036000009909688A0701D50FA602E0490704D55C
:100370000EA6012501E0C046C046009F0024243798
:1003800004E000F05AF930313955641C0028F8D1E6
:100390002B4632462146009800F0DAF8FEBD0000F8
:1003A000000000002D0000002B00000020000000D5
:1003B00001E004C0091F0429FBD28B0701D502808C
:1003C000801CC90700D00270704700290BD0C307FA
:1003D00002D00270401C491E022904D3830702D5B3
:1003E0000280801C891EE3E70022EEE70022DFE79F
:1003F000002203098B422CD3030A8B4211D3002322
:100400009C464EE003460B433CD4002243088B42FB
:1004100031D303098B421CD3030A8B4201D3944688
:100420003FE0C3098B4201D3CB01C01A524183097B
:100430008B4201D38B01C01A524143098B4201D335
:100440004B01C01A524103098B4201D30B01C01A60
:100450005241C3088B4201D3CB00C01A52418308DA
:100460008B4201D38B00C01A524143088B4201D307
:100470004B00C01A5241411A00D201465241104667
:1004800070475DE0CA0F00D04942031000D34042DC
:10049000534000229C4603098B422DD3030A8B4212
:1004A00012D3FC22890112BA030A8B420CD38901B0
:1004B00092118B4208D3890192118B4204D3890196
:1004C0003AD0921100E08909C3098B4201D3CB01D4
:1004D000C01A524183098B4201D38B01C01A524189
:1004E00043098B4201D34B01C01A524103098B428D
:1004F00001D30B01C01A5241C3088B4201D3CB0078
:10050000C01A524183088B4201D38B00C01A52415A
:10051000D9D243088B4201D34B00C01A5241411A31
:1005200000D20146634652415B10104601D340425F
:10053000002B00D54942704763465B1000D3404210
:1005400001B50020C046C04602BD704770477047E5
:10055000FFB504460D4681B024300090216888061E
:1005600004D51022E0699143216000E00120A842F7
:1005700001DD471B00E000270498A1697A191018D3
:10058000081AA0612078C00602D42046C046C046A2
:10059000002608E003986268A168805D9047206AA1
:1005A000401C761C206204988642F3DB2078C0064B
:1005B0000AD52046C046C04606E06268A1683020E1
:1005C0009047206A401C206238467F1E0028F4DCD9
:1005D00007E000986268A168405D9047206A401C6F
:1005E000206228466D1E0028F3DC2046C046C04627
:1005F0002078000602D5022005B0F0BD0120FBE7FF
:1006000001694A1C02610878704700B58FB00291F9
:100610000021059105490193794403911146049005
:100620006846FFF759FE0FB000BD0000E5FFFFFF71
:100630000A681070521C0A60704701468008081A48
:1006400002091018020A1018020C1018C0088200C3
:1006500012185200891A01E0401C0A390A29FBD2FB
:100660007047754600F024F8AE46050069465346CB
:10067000C008C000854618B020B5FFF785FD60BCF6
:1006800000274908B6460026C0C5C0C5C0C5C0C5BC
:10069000C0C5C0C5C0C5C0C5403D49008D467047F6
:1006A00010B50446C046C0462046FFF75CFD10BDAD
:1006B000004870475001002001491820ABBEFEE7FA
:1006C00026000200704700000548416901225202DD
:1006D0005140416103484169012211434161704722
:1006E0000008004800040140F0B51C4C60691C4D36
:1006F0001C4F1D4E400715D5686980214840686130
:1007000038781A4B20221A4900F01EFC3078002855
:1007100004D072680020D31700F032FC6069042115
:10072000084360616069000716D56869FF210131DF
:100730004840686178780D4B20220D4900F004FC98
:100740003078002804D072680120D31700F018FC1C
:100750006069082108436061F0BD000000040140A9
:100760000008004814000020000000206413000866
:10077000A0860100F0B53D4C60693D4D3D4F3E4EB9
:10078000C00616D5686978406861304614308078B4
:100790003A4B20223A4900F0D7FB3078002804D0A9
:1007A00072680220D31700F0EBFB60691021084348
:1007B00060616069800616D56869784068612E4876
:1007C0002E4B1430C07820222D4900F0BDFB30782C
:1007D000002804D072680320D31700F0D1FB6069B1
:1007E0002021084360616069400616D56869784039
:1007F00068612148214B143000792022204900F003
:10080000A3FB3078002804D072680420D31700F0CE
:10081000B7FB6069402108436061606901060120FF
:10082000002907DA6969794069613061616980226C
:10083000114361616169C90506D5696979406961DA
:10084000B060616939436161616989050CD5696985
:100850007940696130700020F0607070706060698C
:100860000121490208436061F0BD0000000401401D
:100870000008004800010000000000206413000888
:10088000A086010070B5044600F00EF80546601C15
:1008900002D004480078241800F006F8401BA0425B
:1008A000FAD370BD1C00002001488068704700002A
:1008B0001C00002002488168027889188160704716
:1008C0001C00002010B50648016810221143016089
:1008D000032000F007F800F027F8002010BD00000A
:1008E0000020024070B504460D4D7D202978C000DF
:1008F000FFF77EFD01460B480068FFF779FD00F029
:1009000007FB002809D1042C07D200222146401EF3
:1009100000F01EF800206C6070BD012070BD00006A
:100920001C0000202800002008B508488169012229
:1009300011438161816911400091C26901040A4338
:10094000C261C0690840009008BD0000001002406C
:1009500010B500F0C9FB10BDF8B50F4606005FD01A
:100960003D4D2868C007C00FB84209D2286840082A
:100970004000384328602868C007C00FB8424FD1F4
:100980003068364C81070CD5400704D560680721D4
:100990000902084360606068F0218843B168084339
:1009A00060603078C0072CD07068012810D0022811
:1009B00011D0032812D021688907002930DA616834
:1009C0008908890001436160FFF76EFF009011E024
:1009D00021688903F1E721688901EEE7616BC903AA
:1009E000EBE7FFF761FF0099411A1D48814201D9E9
:1009F0000320F8BD60680C210840716889008842B6
:100A0000EFD12868C007C00FB8420BD9286840084A
:100A10004000384328602868C007C00FB84201D0A2
:100A20000120F8BD3078400706D56068072109022B
:100A30008843F1680843606000F01EF86168094A65
:100A40000906090F515CC840074908600320FFF7F9
:100A500049FF0020F8BD00000020024000100240C5
:100A600088130000A4130008280000200148006833
:100A7000704700002800002030B519A30FCB89B0C3
:100A80006C460FC41AA30FCB0FC41D4A51680C202B
:100A90000B4603401B48042B05D01B4D082B04D0EC
:100AA0000C2B00D1284609B030BD8B021B0F6C46C1
:100AB000E45CD26A04AB1207120FC9039A5C890F77
:100AC000022901D0032901D0002301E00023284698
:100AD0000021FFF76BFB214600F0C0FAE3E70000BE
:100AE00002030405060708090A0B0C0D0E0F10106F
:100AF0000102030405060708090A0B0C0D0E0F106E
:100B00000010024000127A00006CDC02FEB5040006
:100B100070D02078F94EFA4DC00748D068680007B9
:100B2000800F01281FD068680007800F022804D1B9
:100B30006868C003800F022815D06168012919D0A8
:100B400001208004002901D0052917D02968B1436C
:100B50002960296881432960606800281BD0FFF75D
:100B6000A3FE074613E02868800320D560680028AC
:100B7000CED01CE0286830432860EDE729680143A7
:100B80002960F7E7FFF790FEC01B642870D828683B
:100B90008003F7D50BE0FFF787FE074604E0FFF779
:100BA00083FEC01B6428F1D828688003F7D420781E
:100BB00080073FD568680007800F14D06868000779
:100BC000800F022804D16868C003800F01280AD072
:100BD000E068002828681ED0012108432860FFF73C
:100BE00063FE07460CE0286880070CD5E068012802
:100BF00000D108E080E1FFF757FEC01B0228C5D8EE
:100C000028688007F7D52868F82188432169C9003A
:100C1000084328600EE0400840002860FFF744FECB
:100C2000074604E0FFF740FEC01B0228AED8286844
:100C30008007F7D42078000723D5E0690028686A88
:100C40000FD0012108436862FFF72EFE074604E03B
:100C5000FFF72AFEC01B022898D8686A8007F7D5DC
:100C60000FE0400840006862FFF71EFE074605E0FF
:100C7000C3E0FFF719FEC01B022887D8686A800707
:100C8000F7D4207804274007002861DA002001907B
:100C9000E869C00008D4E969B8060143E961E96977
:100CA000014001200091019096480168C90511D4C6
:100CB0000168821511430160FFF7F6FD009005E021
:100CC000FFF7F2FD0099401A642898D88D48006813
:100CD000C005F5D5A06801280AD0002801D0052854
:100CE00011D0286A400840002862286AB84302E010
:100CF000286A012108432862A068002812D0FFF763
:100D0000D3FD00900AE0286A38432862F0E7FFF735
:100D1000CBFD0099411A7C4881426ED8286A800731
:100D2000F5D50DE0FFF7C0FD009006E0FFF7BCFD34
:100D30000099411A744881425FD8286A8007F5D427
:100D40000198002804D0E969012000078143E96186
:100D50002078C00635D5606901280CD0401D686B2D
:100D600024D038436863686B400840006863FFF72D
:100D70009BFD074622E0686B38436863686B01217E
:100D800008436863FFF790FD074604E0FFF78CFD1A
:100D9000C01B022831D8686B8007F7D5686BF82133
:100DA0008843A169C900084368630AE0B8436863DF
:100DB000F4E7FFF779FDC01B02281ED8686B800797
:100DC000F7D42078800637D568680007800F03289D
:100DD00014D068680007800F022804D16868C00337
:100DE000800F03280AD0206A0028686B16D0304391
:100DF0006863FFF759FD06460CE062E0686BC003CC
:100E00001AD5206A012877D116E0FFF74DFD801B27
:100E1000022856D8686BC003F7D50DE0B04368636D
:100E2000FFF742FD064604E0FFF73EFD801B022867
:100E300047D8686BC003F7D4606A002866D0696839
:100E40000907890F022942D00126360602282868A0
:100E500005D0B0432860FFF727FD044633E0B043D8
:100E60002860FFF721FD074604E0FFF71DFDC01BCA
:100E7000022826D828688001F7D4E86A216B000987
:100E800000010843E862A16AE06A084369687B22BE
:100E9000D203914308436860286830432860FFF715
:100EA00003FD044604E0FFF7FFFC001B022808D8FE
:100EB00028688001F7D529E0FFF7F6FC001B02281F
:100EC00001D90320FEBD28688001F5D41EE0012869
:100ED000F8D06868E96A0322D203A36A02409A4202
:100EE0000AD10907226B090F914205D10F2189040C
:100EF0000840E16A884209D00120FEBD00000100DF
:100F00000010024000700040881300000020F4E749
:100F1000094910B5401E884201D9012010BD074C77
:100F200060610321081F00F0DFF80020A0610720A6
:100F30002061002010BD0000FFFFFF0000E000E086
:100F4000FEE7FEE770470000F0B50C4C002527686F
:100F50000126774027600BE05F5D6D1C954200DB4A
:100F600000252761074601E0491E7F1E002FFBDA9E
:100F70000029F1DC206870402060F0BD0074004062
:100F800030B50949074D4C782855E0002035281820
:100F90000CC0C868401C641CC8604C7000204860CD
:100FA00030BD00003000002000000020704710B568
:100FB000FFF780FC10BD10B592B034216846FFF7F2
:100FC00015FA00240F94022000900D9401200E9435
:100FD000039010200994049010946846FFF796FD42
:100FE000002801D072B6FEE707200D900E940F94F2
:100FF000002110940DA8FFF7AFFC002801D072B6B5
:10100000FEE712B010BD704709480178002902D0F0
:101010004168491C4160074841690322120251405E
:101020004161C0040169490849000161704700003D
:10103000000000200008004830B5074C0021064A97
:10104000203404E0D5692D06FCD52381491C435C7E
:10105000002BF7D130BD000000480040F8B5040C6B
:101060008BB2264682B25E430D0C1046370C5843B5
:10107000360480190021794116466E43370C360438
:101080008019794126466E438919F8BD002805DB91
:10109000C106C90E01208840014908607047000060
:1010A00000E100E08307FF22DB0E9A408907090E6A
:1010B0009940002808DB830809489B001B18186822
:1010C00090430843186070470007000F08388308F2
:1010D00004489B001B18D86990430843D8617047A7
:1010E00000E400E000ED00E08307FF22DB0E9A4001
:1010F0008907090E9940002808DB830809489B00EE
:101100001B18186890430843186070470007000FC9
:101110000838830804489B001B18D869904308438B
:10112000D861704700E400E000ED00E01CB5FFF777
:10113000C9FBFFF740FF7048416901225204114387
:10114000416141699200114341614169521011436B
:101150004161C16901242143C161816921438161E8
:10116000C16943041943C16164490B6855252D03C6
:101170002B430B604B684B608B688B60CB68CB60FC
:101180004B694B61C1691143C161FFF76FFCE121FC
:101190004902FFF72DF95A49C8605A4802680523E9
:1011A0005B051A430260426A11239B021A434262A2
:1011B00082688260C268544B1A43C26008680D227C
:1011C000104308605148026851490A43026082682E
:1011D0000A4382604F4882684F490A438260C2686E
:1011E0000A43C26001691122114301610520FFF722
:1011F0004DFF0620FFF74AFF0720FFF747FF0121B9
:101200000520FFF74FFF01210620FFF74BFF0121CB
:101210000720FFF747FF4148A507A862EC62E8688E
:101220002043E8600F20FFF731FF28682043286043
:101230003B4801683822114301603A4F00263A4C7E
:101240001AE0394D6670143510E0C1003548203081
:101250004058FFF717FB6078344B385C2022285C3D
:101260003349FFF771FE6078401C60706078E16878
:101270008842EADBA66002E0A0680028E1D12D499F
:101280006068884200DD267020690028F4D00025BF
:1012900029A0FFF7D1FE0BE07A5D2CA16846FFF78D
:1012A00007F86846FFF7C8FE29A0FFF7C5FE6D1CCA
:1012B000E0688542F0DB27A0FFF7BEFE002526A0F0
:1012C000FFF7BAFE10E017480096E90020300196BB
:1012D00042581EA16846FEF7EBFF6846FFF7ACFEDA
:1012E0001BA0FFF7A9FE6D1CE0688542EBDB19A08F
:1012F000FFF7A2FE2661BFE7001002400008004889
:101300000048004000040048AAAA0A000004014066
:10131000FF03000000000140111100003F1F00000A
:10132000007400403000002000000020641300081A
:10133000A086010010270000427574746F6E205063
:101340007265737365733A20000000002564000025
:101350002C0000000A0D00006D732044656C61795B
:10136000733A20007F97AFC5D8E8F4FBFEFBF4E8A2
:10137000D8C5AF977F664E382515090200020915BA
:1013800025384E660000000000000000000000004C
:10139000000000000000000000000000000000004D
:1013A0000000000000000000000000000102030433
:1013B00006070809D4130008000000202C000000D4
:1013C00004010008001400082C000020840700001D
:1013D00020010008000000000000000000000000E4
:1013E0000000000000000000C8A0785028000000A5
:1013F00001000000040000000000000000127A005C
:04000005080000C12E
:00000001FF
